:020000040800F2
:100000007804002001010008971C000895140008DE
:10001000951C0008810600082D1D00080000000046
:100020000000000000000000000000009B1C000811
:100030008306000800000000991C00089D1C0008B1
:100040001B0100081B0100081B0100081B01000820
:100050001B0100081B0100081B0100081B01000810
:100060001B0100081B0100081B0100081B01000800
:100070001B0100081B0100081B0100081B010008F0
:100080001B0100081B0100081B0100081B010008E0
:100090001B0100081B0100081B0100081B010008D0
:1000A0001B0100081B0100081B0100081B010008C0
:1000B0001B0100081B0100081B010008991400081F
:1000C0001B0100081B0100081B0100081B010008A0
:1000D0001B0100081B0100081B0100081B01000890
:1000E0001B0100081B0100081B010008DFF80CD0F1
:1000F00000F0B4FA004800476D1D000878040020A5
:100100000648804706480047FEE7FEE7FEE7FEE7B1
:10011000FEE7FEE7FEE7FEE7FEE7FEE7E51C000878
:10012000ED000008202A04DB203A21FA02F0002129
:10013000704721FA02F3D040C2F1200291400843F7
:1001400019467047D2B201E000F8012B491EFBD2DC
:1001500070470022F6E710B513460A4604461946D2
:10016000FFF7F0FF204610BDF0B480EA0102D40F83
:100170004200B2EB410F02D20246084611464A0045
:1001800042D0C30DDDB2C1F3C752AD1A202D35DA0E
:10019000C1F3160141F4000204B15242C5F1200638
:1001A00002FA06F12A411044B3EBD05F23D0C4B168
:1001B000012DA0EBC35009DCF0BC4FF0004202EA75
:1001C000C352DBB200F5000000F0BCB9400000F102
:1001D000807000EBC350A0F1807040EAD1704900FC
:1001E00009E0490841EAC071A0EBC35000F50000E6
:1001F000400800EBC350F0BC00F09BB96142012203
:1002000002EB4101001BF6E7F0BC704781F00041B2
:10021000AAE780F00040A7E72DE9FE4F804681EA7B
:100220000300C00F0C46009021F0004123F0004570
:10023000B8EB0200A94105D24046214690461C4633
:100240000B46024623F00040104347D0270DC7F36A
:100250000A00C3F30A510290401A019040286BDA59
:10026000C3F3130040F4801B0098924620B1002392
:10027000D2EB030A63EB0B0B01985946C0F1400225
:10028000504600F035F906460D4650465946019A4B
:1002900000F03DF910EB08006141002487EA11529B
:1002A00084EAE7731A4340D0009A62B3019A012AA4
:1002B0004FEA075215DC001B61EB02014FF00042D0
:1002C00002EA0752CDE90042001C41F58011324696
:1002D0002B4600F074F903B0BDE8F08F404621468C
:1002E000F9E7001B61EB0201001C41F580130018C7
:1002F0005B412018A2F5001747EB030140EAD570D7
:10030000B6196D4111E06D084FEA360645EAC07531
:100310004FEA0752001B61EB0201001C41F58011FE
:1003200049084FEA30000019514132462B4603B0CC
:10033000BDE8F04F00F034B90098012240000023DE
:10034000D0EB020263EBE073009821464FEAE074C1
:10035000B8EB000061EB0401E9E783F000435BE7E1
:1003600081F0004158E72DE9FE4F81EA030404F0D3
:10037000004421F0004100944FF0000B23F00043B3
:1003800050EA01045ED052EA03045BD0C3F30A547E
:10039000C1F30A552C44A4F2F3340194A0FB025497
:1003A000C1F3130141F48011C3F3130343F4801329
:1003B00001FB024400FB034E840A970A44EA81547D
:1003C00047EA8357A4FB076802958D0A05FB07855A
:1003D0004FEA932C04FB0C542705029D4FEA065864
:1003E00047EA1637B5EB08056EEB070C870E920E41
:1003F00047EA811742EA8312A7FB0201B6EB0B0121
:1004000064EB00042B0D43EA0C335E1844EB1C50E4
:10041000DA465146E7FB0201C5F313044FEA0B33FA
:1004200043EA14534FEA0432019C43EA0603A4F161
:100430000C040294009CCDE900B400F0C0F803B0B5
:10044000BDE8F08F00200146F9E770B521F00043C8
:1004500003430CD0C1F30A550024D5EB040564EB2B
:100460000403D617AD1AB34102DB0020014670BD6C
:10047000201841EB025170BD0EB540F2334102919C
:100480000021CDE900110A460B4600F098F803B0B0
:1004900000BD00F0004230F000400AD0C10D01F56F
:1004A0006071C0F3160042EA0151C20840071143CF
:1004B000704700200146704701F0004330B421F03E
:1004C000004150EA010206D00A0DA2F56072C1F3A4
:1004D0001301002A02DC30BC00207047440F44EABC
:1004E000C104C100E01830BC00EBC25000F021B8DC
:1004F000202A04DB203A00FA02F1002070479140E4
:10050000C2F1200320FA03F3194390407047202AD8
:1005100006DBCB17203A41FA02F043EAE07306E02B
:1005200041FA02F3D040C2F120029140084319463B
:1005300070470029A8BF7047401C490008BF20F041
:100540000100704710B4B0FA80FC00FA0CF050EAD9
:10055000010404BF10BC704749B1CCF1200421FA5A
:1005600004F411FA0CF118BF012121430843A3EB55
:100570000C01CB1D4FEA00614FEA102042BF002062
:1005800010BC704700EBC35010440029A4BF10BC3E
:100590007047401C490008BF20F0010010BC7047A4
:1005A00010B5141E73F1000408DA401C41F100017B
:1005B00092185B411A4301D120F0010010BD2DE9D2
:1005C000F04D92469B4611B1B1FA81F202E0B0FAC9
:1005D00080F220329046FFF78BFF04460F4640EA38
:1005E0000A0041EA0B0153465A46084313D011460C
:1005F00053EA010019D0C8F140025046FFF792FDBE
:1006000005460E46504659464246FFF771FF0843DD
:1006100005D0012004E020463946BDE8F08D0020D9
:10062000054346EAE0762C4337430A986305E40A1B
:10063000A0EB08000022FD0A44EA47540A3002D524
:1006400000200146E9E7010510196941DDE9084587
:1006500000196941BDE8F04DA2E70000064C074DC6
:1006600006E0E06840F0010394E807009847103482
:10067000AC42F6D3FFF73EFD981E0008B81E0008F6
:10068000FEE7704710B590F821100024022903D02E
:100690000421816301243DE001680A6822F00E0212
:1006A0000A6001680A6822F001020A601A4A0168B9
:1006B000914201D1012121E0174A1432914201D126
:1006C00010211BE0144A2832914201D1891515E00E
:1006D000114A3C32914201D189140FE00E4A503246
:1006E000914202D14FF4803108E00B4A64329142CA
:1006F00002D14FF4801101E04FF08071064A083AB0
:100700005160012180F82110002180F82010416BF8
:1007100001B18847204610BD0800024090F8210032
:100720007047000070B5044600F0FEF80546601CF6
:1007300002D004480078044400F0F6F8401BA042C0
:10074000FAD370BD100000202DE9F84FDFF8B89102
:10075000002409F1040A0AF1040B23460F270BF1C8
:10076000040EC9E00125A5402A40AA427DD1674E6A
:10077000D1F804C0ACEB0608B44532D014DCBCF1AF
:10078000030F3AD009DCBCF1000F2AD0BCF1010FF5
:100790001CD0BCF1020F31D11DE0BCF1110F17D0FC
:1007A000BCF1120F2AD119E0B8F5881F19D006DC68
:1007B000B8F5803F15D0B8F5801F1FD111E0B8F50E
:1007C000001F0ED0B8F5041F18D10AE0CB6815E061
:1007D000CB681B1D12E0CB6808330FE0CB680C33ED
:1007E0000CE08B682BB1012B4FF0080303D045615F
:1007F00004E0042302E0056100E00023FF2A01D8A1
:10080000064601E000F104064FEA840501D9A5F18E
:100810002005D6F8008007FA05FC28EA0C0803FA40
:1008200005F548EA0508C6F800804D68ED0062D578
:10083000374DAE6946F00106AE61AD6924F003069E
:1008400005F001050095334D06EB050CDCF808506A
:10085000A607360F07FA06F825EA0805DFF8B8807C
:10086000404503D14FF0000817E044E0DFF8AC80CA
:10087000404502D14FF001080FE0DFF8A480404569
:1008800002D14FF0020808E0DFF89880404502D11D
:100890004FF0030801E04FF0040808FA06F848EAB0
:1008A0000508CCF808804D68D9F80060ED034D4686
:1008B00001D5164300E096432E604D68DAF80060DB
:1008C000AD03554601D5164300E096432E604D68B2
:1008D000DBF80060ED025D4601D5164300E096436B
:1008E0002E604D68DEF80060AD02754601D51643F6
:1008F00000E096432E60641C0D682A46E5407FF4B4
:1009000031AFBDE8F88F0000000401400000111075
:10091000001002400000014000080140000C0140AE
:100920000010014000140140014880687047000039
:1009300010000020704770472DE9F0410268002444
:100940005168C56A90F83E3090F83D60102B1CD07D
:10095000402B1AD0036C002B7ED053694FF0280532
:10096000DB439F0779D4CF43BF0576D4016C01B137
:10097000946990F83D3000219D430B467FD0C91EFD
:10098000516180F83C30BDE8F081946953694FF4BF
:100990002A07DB435FEAC37C4FF02A4604D0BD42FE
:1009A000F1D0B542EFD010E0CD43AD050DD4C16A12
:1009B000B94201D1012103E0C16AB14201D108214C
:1009C000C162BDE8F04101F06FB81D0716D4CD43F8
:1009D000AD0513D4416CC9B21161416B11B9826B81
:1009E000002AD0D0896A19B9816B896A0029CAD0D6
:1009F0000068416841F400614160C4E79D0706D486
:100A0000CD43AD0503D4BDE8F04100F0A1BFE44300
:100A1000526864074FEA025215D4002AB3DB1A0663
:100A200008D4CA43520505D45A0705D5BDE8F0419C
:100A300000F00CBF5A07A6D4C9438905A3D4BDE86A
:100A4000F04100F0C1BE002A9DDB5A060CD4CA4317
:100A5000520509D45A0702E00FE023E00FE005D564
:100A6000BDE8F04100F067BE5A078CD4C943890540
:100A700089D4BDE8F04100F0F5BD94696DE7556893
:100A800025F480655560E243540700D50121120624
:100A900001D5828900E0028B80F83C3092B2FFF7EA
:100AA0004AFF70E7DC0606D4CC43A40503D4BDE8B6
:100AB000F04101F041B8212E27D0292E25D05C0627
:100AC00055D4CC43640552D45B0752D590F83D1001
:100AD000438D002B91D01269436A1A70426A521CEE
:100AE0004262428D521E4285428D002A85D12A29BA
:100AF000D7D101684A6822F480624A6022210163EA
:100B000080F83D5000F0ACF93DE71C0623D4CC43FF
:100B1000640520D45B0720D590F83D10438D002B51
:100B2000BFD0436A1B781361426A521C4262428DF5
:100B3000521E4285428D002AB3D12929B1D10168C4
:100B40004A6822F480624A602121016380F83D50A6
:100B500000F087F917E75B07A3D4C9438905A0D440
:100B6000418D00299DD0416A097811610AE05B0737
:100B700097D4C943890594D4418D002991D0116936
:100B8000426A1170416A491C4162418D491E41858A
:100B9000F9E6704770B504001BD094F83D000025BD
:100BA00020B984F83C50204600F024F9242084F831
:100BB0003D002068016821F00101016000F080FA29
:100BC0004D4A6168914201D84C4900E04C49884245
:100BD00001D2012070BD4B492368B0FBF1F15E6882
:100BE00026F03F060E435E606368934206D94FF4D9
:100BF000967359434FF47A73B1FBF3F12368491CA0
:100C00001E6A26F03F06314319626168914210D88E
:100C10004900401EB0FBF1F2521CC2F30B02042A41
:100C200001D2042022E0B0FBF1F0401CC0F30B0025
:100C30001CE0A368F3B301EBC10202EB0116421EF4
:100C4000B2FBF6F2521C42F48042120549D093B333
:100C500001EBC10202EB0111401EB0FBF1F0401CA0
:100C6000C0F30B0040F4804040F400402168CA69A2
:100C70004CF6FF739A431043C861D4E90701084357
:100C800021680A6822F0C00210430860D4E9030119
:100C900001432068826848F2FF339A431143816020
:100CA000D4E9050108432168CA6822F0FF02104315
:100CB000C86001E00EE016E02068016841F0010123
:100CC00001602564202084F83D00256384F83E50AF
:100CD000002070BD01EB4106421EB2FBF6F2521C31
:100CE000B3E70120C2E701EB4101401EB0FBF1F088
:100CF000401CC0F30B00B7E7A086010080841E00F3
:100D000000093D0040420F00704770477047704730
:100D100070470000F8B50024DDE90676009490F8ED
:100D20003D50202D60D1314D46F2A81C2D68B5FBF9
:100D3000FCF505EBC50C0CEB051500956D1E00953B
:100D400006D00568AD69ED43AD070DD4009DF5E70C
:100D500040F8304F202141738473016941F0200134
:100D6000016104730120F8BD90F83C50012D3BD087
:100D7000012580F83C500568D5F800C05FEACC7CBE
:100D800005D1D5F800C04CF0010CC5F800C00568CD
:100D9000D5F800C02CF4006CC5F800C0222580F8FE
:100DA0003D50402580F83E50046447624685458D9D
:100DB00005850F4DC56241648264C36404650168A2
:100DC0000A6842F480620A6001680A6842F480722C
:100DD0000A6080F83C40018D21B10068416841F40F
:100DE000E06141600020F8BD0220F8BD1C00002039
:100DF0000000FFFF10B586B0002100910191029123
:100E0000039100681349884222D1134CA06940F035
:100E10000800A061A069694600F008000490C020A5
:100E2000009012200190032003900C48FFF78CFCE7
:100E3000E06940F40010E061E069002200F4001075
:100E4000049011461F2000F073F81F2000F062F894
:100E500006B010BD0054004000100240000C0140DC
:100E6000704770470248816802781144816070477A
:100E700010000020074810B5016841F01001016022
:100E8000032000F075F8002000F006F800F024F8C8
:100E9000002010BD0020024070B50D4D04464FF4F7
:100EA0007A712878B1FBF0F00A490968B1FBF0F0DB
:100EB00000F0DCFA48B9102C07D200222146501E5F
:100EC00000F036F800206C6070BD012070BD00009D
:100ED000100000201C0000200C4808B5816941F07A
:100EE00001018161816901F001010091C16941F055
:100EF0008051C161C06900F0805000900448416891
:100F000021F0E06141F00071416008BD0010024035
:100F100000000140002809DB00F01F020121914080
:100F20004009800000F1E020C0F800117047000087
:100F3000F0B40E4B1B680C46C3F30223C3F1070544
:100F4000042D00D90425191D072901D2002300E032
:100F5000DB1E012606FA05F1491E214099409E40FC
:100F6000761E16403143F0BC00F0E1BE0CED00E00F
:100F7000064900F0070208684FF6FF03184040EAF0
:100F80000220034A10430860704700000CED00E0A7
:100F90000000FA052DE9F0470F46050061D0434EE9
:100FA000306800F00700B84209D2306820F007002E
:100FB00038433060306800F00700B84251D12868EB
:100FC0003B4C810712D5400703D5606840F4E060D0
:100FD00060602878000703D5606840F46050606066
:100FE0006068A96820F0F000084360602878C007B6
:100FF00028D06868012810D02168022810D08907FD
:1010000000292EDA616821F0030101436160FFF7D6
:101010008BFC804641F288390DE021688903EFE7B7
:101020008901EDE7FFF780FCA0EB0801494502D9F3
:101030000320BDE8F0876068696800F00C00B0EB41
:10104000810FEFD1306800F00700B8420BD930684B
:1010500020F0070038433060306800F00700B842E5
:1010600001D00120E5E72878400705D56068E968E8
:1010700020F4E060084360602878000706D56068C7
:10108000296920F4605040EAC100606000F028F84F
:101090006168084AC1F30311515CC8400649086001
:1010A00006480068FFF7F8FE0020C2E70020024073
:1010B00000100240801E00081C00002014000020C8
:1010C0000448054900684968044AC1F30221515C9B
:1010D000C84070471C00002000100240901E00080D
:1010E00012A185B00FC98DE80F0014A0144A006842
:1010F00004905168134801F00C03042B10D0082B06
:101100000ED1C1F38343C9031DF803000AD551680A
:1011100004AAC1F34041515C0A4A5043B0FBF1F0CC
:1011200005B0704708494843FAE700000203040588
:10113000060708090A0B0C0D0E0F10100102000023
:101140000010024000127A0000093D002DE9F84F1E
:10115000040070D02078C04DC00749D06868C0F343
:101160008100012807D06868C0F38100022809D1F6
:101170006868C00306D52868800339D560680028F0
:10118000E7D035E06068B0F5803F0BD010B1B0F526
:10119000A02F11D0286820F480302860286820F41F
:1011A000802002E0286840F480302860606890B1B8
:1011B000FFF7BAFB06460AE0286840F48020286062
:1011C000F0E700BFFFF7B0FB801B642873D82868E6
:1011D0008003F7D50CE0FFF7A7FB064605E000BF4C
:1011E000FFF7A2FB801B6428F0D828688003F7D49F
:1011F00020789A4E80074FF001094FF0000839D54A
:10120000686810F00C0F07D06868C0F381000228EE
:1012100009D16868C00306D42868800714D52069FE
:10122000012808D110E02069B0B1C6F80090FFF79E
:101230007BFB074605E00AE1FFF776FBC01B0228AF
:10124000C4D828688007F7D52868616920F0F800BD
:1012500040EAC10028600DE0C6F80080FFF764FB9B
:10126000074604E0FFF760FBC01B022823D828686C
:101270008007F7D4207800072CD57948A169D9B127
:10128000C0F80090FFF750FB074604E0FFF74CFB67
:10129000C01B02280FD8686A8007F7D571484FF441
:1012A000FA510068B0FBF1F0009000BF0098411EB9
:1012B0000091FAD20EE080E0C0F80080FFF734FB26
:1012C000074604E0FFF730FBC01B022875D8686AA8
:1012D0008007F7D42078400760D5E8690027C00070
:1012E00008D4E86940F08050E861E869012700F01F
:1012F000805000905C480168C90513D4016883469A
:1013000041F480710160FFF70FFB824606E000BFE9
:10131000FFF70AFBA0EB0A0064284ED8DBF80000B8
:10132000C005F5D5E06801280AD008B1052813D01A
:10133000286A20F001002862286A20F0040002E0F8
:10134000286A40F001002862E06841F2883B98B1C9
:10135000FFF7EAFA82460BE0286A40F004002862B0
:10136000EEE700BFFFF7E0FAA0EB0A0159455AD8B3
:10137000286A8007F6D50CE0FFF7D6FA824605E02A
:10138000FFF7D2FAA0EB0A0159454CD8286A80072A
:10139000F6D41FB1E86920F08050E861E06988B3B5
:1013A0006968C1F38101022944D00228C6F860802F
:1013B00004D0FFF7B9FA044638E034E0FFF7B4FA96
:1013C000074604E0FFF7B0FAC01B02282BD82868B4
:1013D0008001F7D4206AB0F5803F05D16868A16824
:1013E00020F4003008436860D4E9080108436968C4
:1013F00021F4741108436860C6F86090FFF794FA0E
:10140000044606E025E000BFFFF78EFA001B022825
:1014100009D828688001F7D51BE000BFFFF784FAE0
:10142000001B022802D90320BDE8F88F286880013C
:10143000F4D40EE00128F7D06868226A00F4803105
:10144000914204D1616A00F47010884201D00120F9
:10145000EAE70020E8E700000010024000004242F6
:10146000800442421C0000200070004010B5401E65
:10147000B0F1807F01D3012010BD4FF0E024606106
:101480000F21601700F053FC0020A06107202061AD
:10149000002010BDFEE700000148FFF74DBA000034
:1014A0002000002010B5406A90F83D30426B0021CA
:1014B0009162826B91620268146824F48064146003
:1014C0004185426B5163826B51630268146824F05A
:1014D0000104146090F83D202024602A0BD02822BB
:1014E00032EA03030FD080F83D4080F83E1000BF81
:1014F000FFF74FFB10BD80F83D4080F83E100164BF
:10150000FFF718FA10BD03681C6844F001041C6062
:1015100003681C6844F480641C60016380F83D200B
:10152000E6E7000070B5044690F83D0094F83E10E0
:10153000102906D1222804D121680A6822F4006209
:101540000A60282131EA00024FF000054FF0200622
:1015500026D021684968090503D4602801D084F8A1
:101560003D60256384F83E5020684168090537D501
:10157000416821F400614160606B384990F8212096
:10158000012A11D04163606BFFF77CF838B3206803
:10159000016821F00101016084F83D60606B1CE08E
:1015A000256384F83D10DFE7A06B4163A06BFFF774
:1015B00069F8A0B120684169C943490605D40069AA
:1015C000616A0870606A401C60622068016821F0EE
:1015D0000101016084F83D60A06B416B884710E019
:1015E00094F83D10602923D04169C943490605D4C8
:1015F0000069616A0870606A401C60622046FFF7FB
:10160000C8FA94F83D00216C490710D528280ED15E
:101610002068416821F4E06141601148E06225637F
:1016200084F83D6084F83E502046FFF76DFB70BDA6
:1016300084F83D6025644169C943490605D40069C1
:10164000616A0870606A401C60622068016821F06D
:10165000010101602046FFF76DF9D2E7A5140008EB
:101660000000FFFF10B5C26A438D0168042B06D04D
:10167000438D032B08D0438D022B1DD012E04A6806
:1016800022F480624A600CE04B6823F480634B6074
:10169000042A06D0022A04D001680A6822F4806273
:1016A0000A6001680969426A1170416A491C416215
:1016B000418D491E418510BD012A30D0102A2ED0FF
:1016C000042A30D0022A2ED00A6842F400720A603E
:1016D00001680969426A1170416A491C4162428D80
:1016E000521E4285026812690A70416A491C4162B1
:1016F000418D491E418501684A6822F440724A6062
:10170000202180F83D1090F83E200021402A80F8EA
:101710003E100CD012210163FFF7F7FA10BD0A68E2
:1017200022F48062D3E70A6842F48062CFE7016363
:10173000FFF7EDFA10BD10B590F83D10222914D135
:10174000418D032912D901680969426A1170416A01
:10175000491C4162418D491E4185418D032904D1B7
:101760000068416821F48061416010BDC26A022AAC
:10177000FBD0012901D00029F7D101680A6822F4C1
:1017800080620A6001684A6822F4E0624A60016887
:101790000969426A1170416A491C4162418D491EC2
:1017A0004185202180F83D1090F83E200021402AFC
:1017B00080F83E1004D012210163FFF7A6FA10BD95
:1017C0000163FFF7A4FA10BD10B5C26A90F83D108E
:1017D00021290BD1418D51B1416A0268097811610B
:1017E000416A491C4162418D491E418510BD20233B
:1017F0000021082A13D0202A11D012F5803F0ED0E4
:101800000268546824F4E06454601122026380F892
:101810003E1080F83D3000BFFFF778FA10BD026837
:10182000546824F4E06454600268146844F400745A
:101830001460016380F83D3090F83E2080F83E103F
:10184000402AE9D1FFF764FA10BD000010B590F806
:101850003D1090F83E30C26A048D64B1212903D056
:10186000402B21D122291FD1418DA1B390F83E10E8
:10187000402937D046E02129F2D120230021082A2F
:1018800013D0202A11D012F5803F0ED00268546880
:1018900024F4E06454601122026380F83E1080F862
:1018A0003D3000BFFFF732FA10BD0268546824F4DF
:1018B000E06454600268146844F4007414600163C6
:1018C00080F83D3090F83E2080F83E10402AE9D163
:1018D000FFF71EFA10BDFFE70068416821F4806140
:1018E0004160F7E7016DC1B1016D012922D0016DA1
:1018F0000229EFD190F83D10222923D090F83D1015
:101900002129E7D1416A026809781161416A491CBD
:101910004162418D491E4185DCE7C16C0129816C22
:1019200002D0C1F3072107E00268C9B21161016D5D
:10193000891C05E0816CC9B202681161016D491C06
:101940000165C7E70068016841F480710160C1E783
:1019500078B590F83E50C26A046B90F83D60002361
:101960000168222E73D1066D0EB9402D6FD0056D22
:101970001DB90569B5F5404F1BD0458D95B3468D12
:10198000484D012E20D0448D022C4DD00C6844F4DB
:1019900080640C6001684C68240579D5AA4273D034
:1019A000012A71D0082A6FD0102A6DD0202A6BD05E
:1019B0006EE04A698A6900920A6842F480720A609D
:1019C000016D491C016578BDAA4214D10A6822F450
:1019D00080620A6001684A68120504D50A6822F428
:1019E000806217E0FFE74A698A6900920A6842F458
:1019F00000720A6050E0082A10D0202A0ED0122C63
:101A00000AD0042A03D0022A01D0102AE6D10A689B
:101A100042F480620A603BE0012ADFD00A6822F4C7
:101A200080620A600168DEE7042A11D0022A0FD022
:101A3000102A0DD00C6844F400640C6001684C69F5
:101A40008C6900940C6824F480640C6008E025E044
:101A50000C6844F480640C6001684C6989690091E9
:101A600001684C68240517D5AA4207D0012A05D081
:101A7000082A03D0102A01D0202A0DD14A6842F446
:101A800080524A6008E0FFE74A6842F480524A60A8
:101A900001684A6989690091036578BD4869886968
:101AA000009078BD0000FFFF90F83E10402910D054
:101AB0000169B1F5804F19D0016DB1B3016D0129F4
:101AC00010D1416C5FF0F10201F4407142EAD11192
:101AD00006E0016D0029416C05D0C9B241F0010159
:101AE00000680161704701F0FE01F9E790F83D10D0
:101AF0002129416C07D0C9B241F00101026811618E
:101B0000416B31B902E001F0FE01F7E7826B002A78
:101B1000E8D0896A19B9816B896A0029E2D0006826
:101B2000416841F4006141607047FFE7416CF02279
:101B300001F44071CAE70000F8B590F83D60044632
:101B40000068416821F4E061416020680025416936
:101B50000091016841F0010101602068016821F4F1
:101B60008061016020684168090520D5474F222E19
:101B700048D02A2E46D0616B096849686185618D1D
:101B800019B1216C41F004012164416821F4006124
:101B90004160606BFEF7C2FD012808D0606B4763AF
:101BA000606BFEF76FFD10B1606B416B8847608D15
:101BB00008B320684169C943490708D40069616ACC
:101BC0000870606A401C6062608D401E60852068FD
:101BD0004169C943490608D40069616A0870606AAE
:101BE000401C6062608D401E6085608D18B1206C65
:101BF00040F004002064206C00B32046BDE8F840AB
:101C0000FFF790BCA16B096849686185618D19B1C6
:101C1000216C41F004012164416821F400614160BC
:101C2000A06BFEF77BFD0128C1D0A06B4763A06BC2
:101C3000FEF728FD0028BAD0A06BB6E72A2E06D101
:101C40002563282084F83D002046FFF709F994F821
:101C50003D10202028290DD0216B222901D0222ED1
:101C600007D1256384F83D0084F83E502046FFF7F5
:101C7000F7F8F8BD0649E162256384F83D0084F871
:101C80003E502046FFF740F8F8BD0000A5140008BC
:101C90000000FFFFFEE7704770477047FFF7E2B8AC
:101CA00010B590B028216846FEF753FA14210AA80F
:101CB000FEF74FFA0220009001200490102000242B
:101CC000059007946846FFF741FA0F20CDE90A0412
:101CD0000C940D9400210AA80E94FFF75BF910B044
:101CE00010BD00000D48016841F00101016041682C
:101CF0000B4A1140416001680A4A114001600168C5
:101D000021F480210160416821F4FE0141604FF41B
:101D10001F0181600449C003086070470010024041
:101D20000000FFF8FFFFF6FE08ED00E0FEE7090700
:101D3000090E002804DB00F1E02080F80014704751
:101D400000F00F0000F1E02080F8141D704702E061
:101D500008C8121F08C1002AFAD170477047002036
:101D600001E001C1121F002AFBD170471CB5FFF72B
:101D700081F8FFF795FF3748816941F004018161DF
:101D8000816901F004010091816941F008018161DC
:101D90008069314900F00800009030484FF48042DB
:101DA00001602F49416000218160C0E90312416157
:101DB0008161C1610162FEF7EDFE2A4C0326DFF866
:101DC000A880DFF8A890DFF8A8A0DFF8A8B0A51ECB
:101DD0006FF00F07CDE900460123E32280211F4861
:101DE000FEF798FF208840BA2880FEF745FB424660
:101DF0004B46FEF7B8FA3A46FEF727FBFEF75CFBC8
:101E0000FEF747FB52465B46FEF7A7FAFEF754FB88
:101E1000A8606420FEF786FCCDE900460123E52298
:101E200080210E48FEF776FF208840BA2880FEF712
:101E300023FB0022104BFEF796FA3A46FEF705FB0D
:101E4000FEF73AFB0D49FEF7E1F9E8606420FEF782
:101E500069FCBFE700100240005400402000002051
:101E6000801A060002000020D7A3703D0AF76540E3
:101E7000CDCCCCCCCC6C474000405F400000C04093
:101E8000000000000000000001020304060708092A
:101E90000000000001020304B81E0008000000203A
:101EA000200000004E1D0008D81E00082000002061
:101EB000580400005E1D0008000000000000000043
:101EC0000000000000000000010000001000000001
:081ED000000000000024F400F2
:04000005080000ED02
:00000001FF
